{
  "_format": "hh-sol-artifact-1",
  "contractName": "DocumentHub",
  "sourceName": "contracts/DocumentHub.sol",
  "abi": [
    {
      "inputs": [],
      "stateMutability": "nonpayable",
      "type": "constructor"
    },
    {
      "anonymous": false,
      "inputs": [
        {
          "indexed": false,
          "internalType": "address",
          "name": "signer",
          "type": "address"
        },
        {
          "indexed": false,
          "internalType": "string",
          "name": "hash",
          "type": "string"
        }
      ],
      "name": "onDocumentSigned",
      "type": "event"
    },
    {
      "anonymous": false,
      "inputs": [
        {
          "indexed": false,
          "internalType": "address",
          "name": "owner",
          "type": "address"
        },
        {
          "indexed": true,
          "internalType": "string",
          "name": "documentType",
          "type": "string"
        },
        {
          "indexed": false,
          "internalType": "string",
          "name": "hash",
          "type": "string"
        },
        {
          "indexed": false,
          "internalType": "uint256",
          "name": "version",
          "type": "uint256"
        }
      ],
      "name": "onDocumentUploaded",
      "type": "event"
    },
    {
      "inputs": [
        {
          "internalType": "address",
          "name": "_owner",
          "type": "address"
        },
        {
          "internalType": "string",
          "name": "_documentType",
          "type": "string"
        }
      ],
      "name": "getLastDocument",
      "outputs": [
        {
          "internalType": "string",
          "name": "",
          "type": "string"
        }
      ],
      "stateMutability": "view",
      "type": "function"
    },
    {
      "inputs": [
        {
          "internalType": "string",
          "name": "_hash",
          "type": "string"
        }
      ],
      "name": "getSignedPDFHash",
      "outputs": [
        {
          "internalType": "string",
          "name": "",
          "type": "string"
        }
      ],
      "stateMutability": "view",
      "type": "function"
    },
    {
      "inputs": [
        {
          "internalType": "address",
          "name": "_signer",
          "type": "address"
        },
        {
          "internalType": "string",
          "name": "_hash",
          "type": "string"
        }
      ],
      "name": "hasSigned",
      "outputs": [
        {
          "internalType": "bool",
          "name": "",
          "type": "bool"
        }
      ],
      "stateMutability": "view",
      "type": "function"
    },
    {
      "inputs": [
        {
          "internalType": "address",
          "name": "_signer",
          "type": "address"
        },
        {
          "internalType": "address",
          "name": "_documentOwner",
          "type": "address"
        },
        {
          "internalType": "string",
          "name": "_documentType",
          "type": "string"
        }
      ],
      "name": "hasSignedLastDocument",
      "outputs": [
        {
          "internalType": "bool",
          "name": "",
          "type": "bool"
        }
      ],
      "stateMutability": "view",
      "type": "function"
    },
    {
      "inputs": [
        {
          "internalType": "string",
          "name": "_hash",
          "type": "string"
        },
        {
          "internalType": "string",
          "name": "_pdfHash",
          "type": "string"
        }
      ],
      "name": "sign",
      "outputs": [],
      "stateMutability": "nonpayable",
      "type": "function"
    },
    {
      "inputs": [
        {
          "internalType": "string",
          "name": "_documentType",
          "type": "string"
        },
        {
          "internalType": "string",
          "name": "_hash",
          "type": "string"
        }
      ],
      "name": "uploadDocument",
      "outputs": [],
      "stateMutability": "nonpayable",
      "type": "function"
    }
  ],
  "bytecode": "0x608060405234801561001057600080fd5b5061096d806100206000396000f3fe608060405234801561001057600080fd5b50600436106100725760003560e01c80634e6ca96e116100505780634e6ca96e146100c8578063d020bb1c146100e8578063e601dd12146100fb57610072565b80632193f1dd146100775780634464fe33146100a05780634e40b8f0146100b5575b600080fd5b61008a61008536600461071e565b61010e565b6040516100979190610857565b60405180910390f35b6100b36100ae366004610759565b6101cf565b005b61008a6100c33660046106d2565b6102a8565b6100db6100d6366004610676565b6103f6565b604051610097919061084c565b6100db6100f63660046106d2565b610441565b6100b3610109366004610759565b610482565b33600090815260026020526040908190209051606091906101309084906107dc565b90815260200160405180910390208054610149906108d0565b80601f0160208091040260200160405190810160405280929190818152602001828054610175906108d0565b80156101c25780601f10610197576101008083540402835291602001916101c2565b820191906000526020600020905b8154815290600101906020018083116101a557829003601f168201915b505050505090505b919050565b3360009081526020819052604080822090516101ec9085906107dc565b9081526020016040518091039020905060018160010160008282546102119190610871565b9091555050600281018054600181018255600091825260209182902084516102419391909201919085019061053f565b508260405161025091906107dc565b60405180910390207f637f0ad50c9319167c8c28bf6a025f661c7322e83cfdc871f5c06bab873fe94b33846001856001015461028c9190610889565b60405161029b9392919061081a565b60405180910390a2505050565b6060600080846001600160a01b03166001600160a01b03168152602001908152602001600020826040516102dc91906107dc565b90815260200160405180910390206002016001600080866001600160a01b03166001600160a01b031681526020019081526020016000208460405161032191906107dc565b90815260200160405180910390206001015461033d9190610889565b8154811061035b57634e487b7160e01b600052603260045260246000fd5b906000526020600020018054610370906108d0565b80601f016020809104026020016040519081016040528092919081815260200182805461039c906108d0565b80156103e95780601f106103be576101008083540402835291602001916103e9565b820191906000526020600020905b8154815290600101906020018083116103cc57829003601f168201915b5050505050905092915050565b6001600160a01b038316600090815260016020526040812061041884846102a8565b60405161042591906107dc565b9081526040519081900360200190205460ff1690509392505050565b6001600160a01b03821660009081526001602052604080822090516104679084906107dc565b9081526040519081900360200190205460ff16905092915050565b3360009081526001602081905260409182902091519091906104a59085906107dc565b9081526040805160209281900383018120805460ff1916941515949094179093553360009081526002909252902082916104e09085906107dc565b9081526020016040518091039020908051906020019061050192919061053f565b507fa1b9f0d62f82a2b5cbc70b20177534d4888166837d120614b48a60d3041ca67a33836040516105339291906107f8565b60405180910390a15050565b82805461054b906108d0565b90600052602060002090601f01602090048101928261056d57600085556105b3565b82601f1061058657805160ff19168380011785556105b3565b828001600101855582156105b3579182015b828111156105b3578251825591602001919060010190610598565b506105bf9291506105c3565b5090565b5b808211156105bf57600081556001016105c4565b80356001600160a01b03811681146101ca57600080fd5b600082601f8301126105ff578081fd5b813567ffffffffffffffff8082111561061a5761061a610921565b604051601f8301601f19908116603f0116810190828211818310171561064257610642610921565b8160405283815286602085880101111561065a578485fd5b8360208701602083013792830160200193909352509392505050565b60008060006060848603121561068a578283fd5b610693846105d8565b92506106a1602085016105d8565b9150604084013567ffffffffffffffff8111156106bc578182fd5b6106c8868287016105ef565b9150509250925092565b600080604083850312156106e4578182fd5b6106ed836105d8565b9150602083013567ffffffffffffffff811115610708578182fd5b610714858286016105ef565b9150509250929050565b60006020828403121561072f578081fd5b813567ffffffffffffffff811115610745578182fd5b610751848285016105ef565b949350505050565b6000806040838503121561076b578182fd5b823567ffffffffffffffff80821115610782578384fd5b61078e868387016105ef565b935060208501359150808211156107a3578283fd5b50610714858286016105ef565b600081518084526107c88160208601602086016108a0565b601f01601f19169290920160200192915050565b600082516107ee8184602087016108a0565b9190910192915050565b60006001600160a01b03841682526040602083015261075160408301846107b0565b60006001600160a01b03851682526060602083015261083c60608301856107b0565b9050826040830152949350505050565b901515815260200190565b60006020825261086a60208301846107b0565b9392505050565b600082198211156108845761088461090b565b500190565b60008282101561089b5761089b61090b565b500390565b60005b838110156108bb5781810151838201526020016108a3565b838111156108ca576000848401525b50505050565b6002810460018216806108e457607f821691505b6020821081141561090557634e487b7160e01b600052602260045260246000fd5b50919050565b634e487b7160e01b600052601160045260246000fd5b634e487b7160e01b600052604160045260246000fdfea264697066735822122092240d671ebbb0b3d1d42ff08c06676d90d8748d89851b51c37595744fb1f73d64736f6c63430008010033",
  "linkReferences": {},
  "deployedLinkReferences": {}
}