{
  "_format": "hh-sol-artifact-1",
  "contractName": "IdentityService",
  "sourceName": "contracts/IdentityService.sol",
  "abi": [
    {
      "inputs": [],
      "stateMutability": "nonpayable",
      "type": "constructor"
    },
    {
      "anonymous": false,
      "inputs": [
        {
          "indexed": true,
          "internalType": "bytes32",
          "name": "channel",
          "type": "bytes32"
        },
        {
          "indexed": true,
          "internalType": "address",
          "name": "user",
          "type": "address"
        }
      ],
      "name": "ChannelJoin",
      "type": "event"
    },
    {
      "anonymous": false,
      "inputs": [
        {
          "indexed": true,
          "internalType": "bytes32",
          "name": "channel",
          "type": "bytes32"
        },
        {
          "indexed": true,
          "internalType": "address",
          "name": "user",
          "type": "address"
        }
      ],
      "name": "ChannelLeave",
      "type": "event"
    },
    {
      "anonymous": false,
      "inputs": [
        {
          "indexed": true,
          "internalType": "address",
          "name": "nodeId",
          "type": "address"
        }
      ],
      "name": "NodeAvailable",
      "type": "event"
    },
    {
      "anonymous": false,
      "inputs": [
        {
          "indexed": true,
          "internalType": "address",
          "name": "nodeId",
          "type": "address"
        }
      ],
      "name": "NodeUnavailable",
      "type": "event"
    },
    {
      "inputs": [
        {
          "internalType": "bytes32",
          "name": "channel",
          "type": "bytes32"
        },
        {
          "internalType": "address",
          "name": "addr",
          "type": "address"
        }
      ],
      "name": "channelIndexOf",
      "outputs": [
        {
          "internalType": "uint256",
          "name": "",
          "type": "uint256"
        }
      ],
      "stateMutability": "view",
      "type": "function"
    },
    {
      "inputs": [
        {
          "internalType": "address",
          "name": "addr",
          "type": "address"
        }
      ],
      "name": "channelsOf",
      "outputs": [
        {
          "internalType": "bytes32[]",
          "name": "",
          "type": "bytes32[]"
        }
      ],
      "stateMutability": "view",
      "type": "function"
    },
    {
      "inputs": [
        {
          "internalType": "address",
          "name": "_address",
          "type": "address"
        }
      ],
      "name": "get",
      "outputs": [
        {
          "internalType": "string",
          "name": "",
          "type": "string"
        }
      ],
      "stateMutability": "view",
      "type": "function"
    },
    {
      "inputs": [
        {
          "internalType": "address",
          "name": "_owner",
          "type": "address"
        }
      ],
      "name": "getFundingSource",
      "outputs": [
        {
          "internalType": "string",
          "name": "",
          "type": "string"
        }
      ],
      "stateMutability": "view",
      "type": "function"
    },
    {
      "inputs": [
        {
          "internalType": "bytes32",
          "name": "channel",
          "type": "bytes32"
        },
        {
          "internalType": "address",
          "name": "addr",
          "type": "address"
        }
      ],
      "name": "inChannel",
      "outputs": [
        {
          "internalType": "bool",
          "name": "",
          "type": "bool"
        }
      ],
      "stateMutability": "view",
      "type": "function"
    },
    {
      "inputs": [
        {
          "internalType": "bytes32",
          "name": "channel",
          "type": "bytes32"
        }
      ],
      "name": "join",
      "outputs": [],
      "stateMutability": "nonpayable",
      "type": "function"
    },
    {
      "inputs": [
        {
          "internalType": "bytes32",
          "name": "channel",
          "type": "bytes32"
        }
      ],
      "name": "leave",
      "outputs": [],
      "stateMutability": "nonpayable",
      "type": "function"
    },
    {
      "inputs": [],
      "name": "leaveAll",
      "outputs": [],
      "stateMutability": "nonpayable",
      "type": "function"
    },
    {
      "inputs": [
        {
          "internalType": "bytes32",
          "name": "channel",
          "type": "bytes32"
        }
      ],
      "name": "members",
      "outputs": [
        {
          "internalType": "address[]",
          "name": "",
          "type": "address[]"
        }
      ],
      "stateMutability": "view",
      "type": "function"
    },
    {
      "inputs": [],
      "name": "myChannels",
      "outputs": [
        {
          "internalType": "bytes32[]",
          "name": "",
          "type": "bytes32[]"
        }
      ],
      "stateMutability": "view",
      "type": "function"
    },
    {
      "inputs": [
        {
          "internalType": "address",
          "name": "",
          "type": "address"
        }
      ],
      "name": "parentNode",
      "outputs": [
        {
          "internalType": "address",
          "name": "",
          "type": "address"
        }
      ],
      "stateMutability": "view",
      "type": "function"
    },
    {
      "inputs": [
        {
          "internalType": "string",
          "name": "_p2pAddress",
          "type": "string"
        }
      ],
      "name": "set",
      "outputs": [],
      "stateMutability": "nonpayable",
      "type": "function"
    },
    {
      "inputs": [],
      "name": "setAvailable",
      "outputs": [],
      "stateMutability": "nonpayable",
      "type": "function"
    },
    {
      "inputs": [
        {
          "internalType": "address",
          "name": "_owner",
          "type": "address"
        },
        {
          "internalType": "string",
          "name": "fundingSource",
          "type": "string"
        }
      ],
      "name": "setDwollaFundingSource",
      "outputs": [],
      "stateMutability": "nonpayable",
      "type": "function"
    },
    {
      "inputs": [
        {
          "internalType": "address",
          "name": "_owner",
          "type": "address"
        }
      ],
      "name": "setOwner",
      "outputs": [],
      "stateMutability": "nonpayable",
      "type": "function"
    },
    {
      "inputs": [
        {
          "internalType": "address",
          "name": "_address",
          "type": "address"
        }
      ],
      "name": "setParentNode",
      "outputs": [],
      "stateMutability": "nonpayable",
      "type": "function"
    },
    {
      "inputs": [],
      "name": "unsetAvailable",
      "outputs": [],
      "stateMutability": "nonpayable",
      "type": "function"
    },
    {
      "inputs": [
        {
          "internalType": "bytes32",
          "name": "channel",
          "type": "bytes32"
        },
        {
          "internalType": "address",
          "name": "addr",
          "type": "address"
        }
      ],
      "name": "userChannelIndexOf",
      "outputs": [
        {
          "internalType": "uint256",
          "name": "",
          "type": "uint256"
        }
      ],
      "stateMutability": "view",
      "type": "function"
    }
  ],
  "bytecode": "0x608060405234801561001057600080fd5b50600080546001600160a01b0319163317905561134c806100326000396000f3fe608060405234801561001057600080fd5b50600436106101365760003560e01c8063662d6d97116100b2578063ad677d0b11610081578063c2bc2efc11610066578063c2bc2efc14610278578063f83ffa641461028b578063fa9084f9146102ab57610136565b8063ad677d0b14610245578063b85b243f1461025857610136565b8063662d6d971461020f5780637a7d156614610222578063879a58381461022a578063acc30a1d1461023257610136565b806338ce71c5116101095780634ed3885e116100ee5780634ed3885e146101c95780635265303c146101dc57806365c9050d146101ef57610136565b806338ce71c5146101a15780633e33b45e146101b457610136565b80630bc9ea1c1461013b57806313af40351461014557806315eaa00c146101585780631f718bf414610181575b600080fd5b6101436102be565b005b610143610153366004610f72565b61030a565b61016b610166366004610f72565b610343565b60405161017891906110ba565b60405180910390f35b61019461018f366004610fff565b61035e565b60405161017891906110ce565b6101436101af366004610f93565b6103cb565b6101bc610410565b604051610178919061111b565b6101436101d7366004611042565b610471565b6101436101ea366004610fff565b61056a565b6102026101fd366004611017565b610920565b6040516101789190611153565b6101bc61021d366004610f72565b6109b7565b610143610a22565b610143610a67565b610143610240366004610f72565b610ac5565b610143610253366004610fff565b610af4565b61026b610266366004610f72565b610c29565b6040516101789190611175565b61026b610286366004610f72565b610ccb565b61029e610299366004611017565b610cf2565b6040516101789190611095565b61029e6102b9366004611017565b610db3565b336000908152600160205260409020805460ff191690556102dd610a67565b60405133907f9994c95992ad4d061591c5ef5969601619b908925cd41b49762cad400c19e47190600090a2565b6000546001600160a01b0316331461032157600080fd5b600080546001600160a01b0319166001600160a01b0392909216919091179055565b6007602052600090815260409020546001600160a01b031681565b6000818152600360209081526040918290208054835181840281018401909452808452606093928301828280156103be57602002820191906000526020600020905b81546001600160a01b031681526001909101906020018083116103a0575b505050505090505b919050565b6000546001600160a01b031633146103e257600080fd5b6001600160a01b0382166000908152600660209081526040909120825161040b92840190610e3b565b505050565b3360009081526002602090815260409182902080548351818402810184019094528084526060939283018282801561046757602002820191906000526020600020905b815481526020019060010190808311610453575b5050505050905090565b60006001600160a01b031660058260405161048c919061109e565b908152604051908190036020019020546001600160a01b031614806104e15750336001600160a01b03166005826040516104c6919061109e565b908152604051908190036020019020546001600160a01b0316145b6105065760405162461bcd60e51b81526004016104fd90611216565b60405180910390fd5b336000908152600460209081526040909120825161052692840190610e3b565b5033600582604051610538919061109e565b90815260405190819003602001902080546001600160a01b03929092166001600160a01b031990921691909117905550565b6040516365c9050d60e01b815230906365c9050d9061058f908490339060040161115e565b60206040518083038186803b1580156105a757600080fd5b505afa1580156105bb573d6000803e3d6000fd5b505050506040513d601f19601f820116820180604052508101906105df9190610fdf565b6105fb5760405162461bcd60e51b81526004016104fd906111df565b6040517ffa9084f9000000000000000000000000000000000000000000000000000000008152600090309063fa9084f99061063c908590339060040161115e565b60206040518083038186803b15801561065457600080fd5b505afa158015610668573d6000803e3d6000fd5b505050506040513d601f19601f8201168201806040525081019061068c919061107d565b60008381526003602052604090208054919250906106ac9060019061124d565b815481106106ca57634e487b7160e01b600052603260045260246000fd5b60009182526020808320909101548483526003909152604090912080546001600160a01b03909216918390811061071157634e487b7160e01b600052603260045260246000fd5b600091825260208083209190910180546001600160a01b0319166001600160a01b03949094169390931790925583815260039091526040902080548061076757634e487b7160e01b600052603160045260246000fd5b600082815260208120820160001990810180546001600160a01b03191690559091019091556040517ff83ffa64000000000000000000000000000000000000000000000000000000008152309063f83ffa64906107ca908690339060040161115e565b60206040518083038186803b1580156107e257600080fd5b505afa1580156107f6573d6000803e3d6000fd5b505050506040513d601f19601f8201168201806040525081019061081a919061107d565b33600090815260026020526040902080549192509061083b9060019061124d565b8154811061085957634e487b7160e01b600052603260045260246000fd5b60009182526020808320909101543383526002909152604090912080548390811061089457634e487b7160e01b600052603260045260246000fd5b60009182526020808320909101929092553381526002909152604090208054806108ce57634e487b7160e01b600052603160045260246000fd5b60019003818190600052602060002001600090559055336001600160a01b0316837f61a99288145b6ac5b3ac1c274271f522da38a7fccdbfa3d03535dadc58279e9660405160405180910390a3505050565b6000805b6000848152600360205260409020548110156109ab57600084815260036020526040902080546001600160a01b03851691908390811061097457634e487b7160e01b600052603260045260246000fd5b6000918252602090912001546001600160a01b031614156109995760019150506109b1565b806109a3816112cf565b915050610924565b50600090505b92915050565b6001600160a01b0381166000908152600260209081526040918290208054835181840281018401909452808452606093928301828280156103be57602002820191906000526020600020905b815481526020019060010190808311610a035750505050509050919050565b336000818152600160208190526040808320805460ff1916909217909155517fd0ce4eb6edbb1513c44e71713258329789901d7161ff677377889f97285f33cb9190a2565b6000610a71610410565b905060005b8151811015610ac157610aaf828281518110610aa257634e487b7160e01b600052603260045260246000fd5b602002602001015161056a565b80610ab9816112cf565b915050610a76565b5050565b33600090815260076020526040902080546001600160a01b0319166001600160a01b0392909216919091179055565b6040516365c9050d60e01b815230906365c9050d90610b19908490339060040161115e565b60206040518083038186803b158015610b3157600080fd5b505afa158015610b45573d6000803e3d6000fd5b505050506040513d601f19601f82011682018060405250810190610b699190610fdf565b15610b865760405162461bcd60e51b81526004016104fd906111a8565b600081815260036020908152604080832080546001810182559084528284200180546001600160a01b03191633908117909155835260028252918290209151610bd191849101611095565b60408051601f198184030181529082905280516020918201208354600181018555600094855291842090910155339183917f412b7e88d5b2eb9e62e2f239d3ac4beb061cd463e0eb8a9ca3653e24a59a25dd9190a350565b6001600160a01b0381166000908152600660205260409020805460609190610c5090611294565b80601f0160208091040260200160405190810160405280929190818152602001828054610c7c90611294565b80156103be5780601f10610c9e576101008083540402835291602001916103be565b820191906000526020600020905b815481529060010190602001808311610cac5750939695505050505050565b6001600160a01b0381166000908152600460205260409020805460609190610c5090611294565b60008083604051602001610d069190611095565b60405160208183030381529060405280519060200120905060005b6001600160a01b038416600090815260026020526040902054811015610da8576001600160a01b0384166000908152600260205260409020805483919083908110610d7c57634e487b7160e01b600052603260045260246000fd5b90600052602060002001541415610d965791506109b19050565b80610da0816112cf565b915050610d21565b506000949350505050565b6000805b6000848152600360205260409020548110156109ab57600084815260036020526040902080546001600160a01b038516919083908110610e0757634e487b7160e01b600052603260045260246000fd5b6000918252602090912001546001600160a01b03161415610e295790506109b1565b80610e33816112cf565b915050610db7565b828054610e4790611294565b90600052602060002090601f016020900481019282610e695760008555610eaf565b82601f10610e8257805160ff1916838001178555610eaf565b82800160010185558215610eaf579182015b82811115610eaf578251825591602001919060010190610e94565b50610ebb929150610ebf565b5090565b5b80821115610ebb5760008155600101610ec0565b80356001600160a01b03811681146103c657600080fd5b600082601f830112610efb578081fd5b813567ffffffffffffffff80821115610f1657610f16611300565b604051601f8301601f19908116603f01168101908282118183101715610f3e57610f3e611300565b81604052838152866020858801011115610f56578485fd5b8360208701602083013792830160200193909352509392505050565b600060208284031215610f83578081fd5b610f8c82610ed4565b9392505050565b60008060408385031215610fa5578081fd5b610fae83610ed4565b9150602083013567ffffffffffffffff811115610fc9578182fd5b610fd585828601610eeb565b9150509250929050565b600060208284031215610ff0578081fd5b81518015158114610f8c578182fd5b600060208284031215611010578081fd5b5035919050565b60008060408385031215611029578182fd5b8235915061103960208401610ed4565b90509250929050565b600060208284031215611053578081fd5b813567ffffffffffffffff811115611069578182fd5b61107584828501610eeb565b949350505050565b60006020828403121561108e578081fd5b5051919050565b90815260200190565b600082516110b0818460208701611264565b9190910192915050565b6001600160a01b0391909116815260200190565b6020808252825182820181905260009190848201906040850190845b8181101561110f5783516001600160a01b0316835292840192918401916001016110ea565b50909695505050505050565b6020808252825182820181905260009190848201906040850190845b8181101561110f57835183529284019291840191600101611137565b901515815260200190565b9182526001600160a01b0316602082015260400190565b6000602082528251806020840152611194816040850160208701611264565b601f01601f19169190910160400192915050565b6020808252601e908201527f596f752061726520616c726561647920696e20746865206368616e6e656c0000604082015260600190565b6020808252601a908201527f596f7520617265206e6f7420696e20746865206368616e6e656c000000000000604082015260600190565b60208082526019908201527f503250204164647265737320616c72656164792074616b656e00000000000000604082015260600190565b60008282101561125f5761125f6112ea565b500390565b60005b8381101561127f578181015183820152602001611267565b8381111561128e576000848401525b50505050565b6002810460018216806112a857607f821691505b602082108114156112c957634e487b7160e01b600052602260045260246000fd5b50919050565b60006000198214156112e3576112e36112ea565b5060010190565b634e487b7160e01b600052601160045260246000fd5b634e487b7160e01b600052604160045260246000fdfea2646970667358221220e3f86fa7ca03559a751f0f01e77c675a470f228b44e0e914498779677b7ee8f664736f6c63430008010033",
  "linkReferences": {},
  "deployedLinkReferences": {}
}