{
  "_format": "hh-sol-artifact-1",
  "contractName": "LogisticsContract",
  "sourceName": "contracts/LogisticsContract.sol",
  "abi": [
    {
      "inputs": [
        {
          "internalType": "address",
          "name": "_documentHubAddress",
          "type": "address"
        },
        {
          "internalType": "address",
          "name": "_identityAddress",
          "type": "address"
        }
      ],
      "stateMutability": "nonpayable",
      "type": "constructor"
    },
    {
      "anonymous": false,
      "inputs": [
        {
          "indexed": true,
          "internalType": "bytes32",
          "name": "txId",
          "type": "bytes32"
        },
        {
          "indexed": false,
          "internalType": "address",
          "name": "driver",
          "type": "address"
        }
      ],
      "name": "DriverAssigned",
      "type": "event"
    },
    {
      "anonymous": false,
      "inputs": [
        {
          "indexed": true,
          "internalType": "bytes32",
          "name": "txId",
          "type": "bytes32"
        },
        {
          "indexed": false,
          "internalType": "enum LogisticsContract.State",
          "name": "state",
          "type": "uint8"
        }
      ],
      "name": "DriverConfirmed",
      "type": "event"
    },
    {
      "anonymous": false,
      "inputs": [
        {
          "indexed": true,
          "internalType": "bytes32",
          "name": "txId",
          "type": "bytes32"
        }
      ],
      "name": "PaymentConfirmed",
      "type": "event"
    },
    {
      "anonymous": false,
      "inputs": [
        {
          "indexed": true,
          "internalType": "bytes32",
          "name": "txId",
          "type": "bytes32"
        }
      ],
      "name": "PickupInitialized",
      "type": "event"
    },
    {
      "anonymous": false,
      "inputs": [
        {
          "indexed": true,
          "internalType": "bytes32",
          "name": "txId",
          "type": "bytes32"
        }
      ],
      "name": "ShipmentAccepted",
      "type": "event"
    },
    {
      "anonymous": false,
      "inputs": [
        {
          "indexed": true,
          "internalType": "bytes32",
          "name": "txId",
          "type": "bytes32"
        },
        {
          "indexed": false,
          "internalType": "address",
          "name": "paymentMethod",
          "type": "address"
        },
        {
          "indexed": false,
          "internalType": "uint256",
          "name": "value",
          "type": "uint256"
        }
      ],
      "name": "ShipmentCreated",
      "type": "event"
    },
    {
      "anonymous": false,
      "inputs": [
        {
          "indexed": true,
          "internalType": "bytes32",
          "name": "txId",
          "type": "bytes32"
        },
        {
          "indexed": true,
          "internalType": "address",
          "name": "paymentMethod",
          "type": "address"
        }
      ],
      "name": "ShipmentDelivered",
      "type": "event"
    },
    {
      "anonymous": false,
      "inputs": [
        {
          "indexed": true,
          "internalType": "bytes32",
          "name": "txId",
          "type": "bytes32"
        }
      ],
      "name": "ShipmentReadyForPickup",
      "type": "event"
    },
    {
      "anonymous": false,
      "inputs": [
        {
          "indexed": true,
          "internalType": "bytes32",
          "name": "txId",
          "type": "bytes32"
        },
        {
          "indexed": false,
          "internalType": "uint256",
          "name": "currentStop",
          "type": "uint256"
        }
      ],
      "name": "StopConfirmed",
      "type": "event"
    },
    {
      "inputs": [
        {
          "internalType": "bytes32",
          "name": "txId",
          "type": "bytes32"
        }
      ],
      "name": "acceptShipment",
      "outputs": [],
      "stateMutability": "nonpayable",
      "type": "function"
    },
    {
      "inputs": [
        {
          "internalType": "bytes32",
          "name": "_transactionID",
          "type": "bytes32"
        },
        {
          "internalType": "address payable",
          "name": "_driverAddress",
          "type": "address"
        }
      ],
      "name": "addDriverToTransaction",
      "outputs": [
        {
          "internalType": "bool",
          "name": "",
          "type": "bool"
        }
      ],
      "stateMutability": "payable",
      "type": "function"
    },
    {
      "inputs": [
        {
          "internalType": "bytes32",
          "name": "_transactionID",
          "type": "bytes32"
        }
      ],
      "name": "confirmDelivery",
      "outputs": [],
      "stateMutability": "payable",
      "type": "function"
    },
    {
      "inputs": [
        {
          "internalType": "bytes32",
          "name": "_transactionID",
          "type": "bytes32"
        }
      ],
      "name": "confirmPayment",
      "outputs": [],
      "stateMutability": "nonpayable",
      "type": "function"
    },
    {
      "inputs": [
        {
          "internalType": "bytes32",
          "name": "_transactionID",
          "type": "bytes32"
        }
      ],
      "name": "confirmPickup",
      "outputs": [],
      "stateMutability": "payable",
      "type": "function"
    },
    {
      "inputs": [
        {
          "internalType": "bytes32",
          "name": "_transactionID",
          "type": "bytes32"
        }
      ],
      "name": "confirmStop",
      "outputs": [],
      "stateMutability": "payable",
      "type": "function"
    },
    {
      "inputs": [
        {
          "internalType": "string",
          "name": "shipmentId",
          "type": "string"
        },
        {
          "internalType": "address",
          "name": "_owner",
          "type": "address"
        }
      ],
      "name": "getShipment",
      "outputs": [
        {
          "components": [
            {
              "internalType": "bytes32",
              "name": "transactionAddress",
              "type": "bytes32"
            },
            {
              "internalType": "string",
              "name": "shipmentId",
              "type": "string"
            },
            {
              "internalType": "uint256",
              "name": "agreedUponRate",
              "type": "uint256"
            },
            {
              "components": [
                {
                  "internalType": "uint256",
                  "name": "witholdedRate",
                  "type": "uint256"
                },
                {
                  "internalType": "address",
                  "name": "carrierAddress",
                  "type": "address"
                },
                {
                  "internalType": "bool",
                  "name": "exists",
                  "type": "bool"
                }
              ],
              "internalType": "struct LogisticsContract.Carrier",
              "name": "carrier",
              "type": "tuple"
            },
            {
              "components": [
                {
                  "internalType": "uint256",
                  "name": "witholdedRate",
                  "type": "uint256"
                },
                {
                  "internalType": "address payable",
                  "name": "driverAddress",
                  "type": "address"
                },
                {
                  "internalType": "bool",
                  "name": "exists",
                  "type": "bool"
                }
              ],
              "internalType": "struct LogisticsContract.Driver",
              "name": "driver",
              "type": "tuple"
            },
            {
              "components": [
                {
                  "internalType": "uint256",
                  "name": "witholdedRate",
                  "type": "uint256"
                },
                {
                  "internalType": "address",
                  "name": "shipperAddress",
                  "type": "address"
                },
                {
                  "internalType": "bool",
                  "name": "exists",
                  "type": "bool"
                }
              ],
              "internalType": "struct LogisticsContract.Shipper",
              "name": "shipper",
              "type": "tuple"
            },
            {
              "internalType": "string[]",
              "name": "shipperRequiredDocs",
              "type": "string[]"
            },
            {
              "internalType": "string[]",
              "name": "carrierRequiredDocs",
              "type": "string[]"
            },
            {
              "internalType": "contract PaymentMethod",
              "name": "paymentMethod",
              "type": "address"
            },
            {
              "internalType": "bytes",
              "name": "paymentExtraData",
              "type": "bytes"
            },
            {
              "internalType": "uint256",
              "name": "pickup",
              "type": "uint256"
            },
            {
              "internalType": "uint256",
              "name": "delivery",
              "type": "uint256"
            },
            {
              "internalType": "uint256[]",
              "name": "stops",
              "type": "uint256[]"
            },
            {
              "internalType": "bool",
              "name": "paid",
              "type": "bool"
            },
            {
              "internalType": "enum LogisticsContract.State",
              "name": "state",
              "type": "uint8"
            },
            {
              "internalType": "uint256",
              "name": "currentStop",
              "type": "uint256"
            },
            {
              "internalType": "bool",
              "name": "exists",
              "type": "bool"
            }
          ],
          "internalType": "struct LogisticsContract.Transaction",
          "name": "",
          "type": "tuple"
        }
      ],
      "stateMutability": "view",
      "type": "function"
    },
    {
      "inputs": [
        {
          "internalType": "bytes32",
          "name": "txId",
          "type": "bytes32"
        }
      ],
      "name": "getShipmentByTxId",
      "outputs": [
        {
          "components": [
            {
              "internalType": "bytes32",
              "name": "transactionAddress",
              "type": "bytes32"
            },
            {
              "internalType": "string",
              "name": "shipmentId",
              "type": "string"
            },
            {
              "internalType": "uint256",
              "name": "agreedUponRate",
              "type": "uint256"
            },
            {
              "components": [
                {
                  "internalType": "uint256",
                  "name": "witholdedRate",
                  "type": "uint256"
                },
                {
                  "internalType": "address",
                  "name": "carrierAddress",
                  "type": "address"
                },
                {
                  "internalType": "bool",
                  "name": "exists",
                  "type": "bool"
                }
              ],
              "internalType": "struct LogisticsContract.Carrier",
              "name": "carrier",
              "type": "tuple"
            },
            {
              "components": [
                {
                  "internalType": "uint256",
                  "name": "witholdedRate",
                  "type": "uint256"
                },
                {
                  "internalType": "address payable",
                  "name": "driverAddress",
                  "type": "address"
                },
                {
                  "internalType": "bool",
                  "name": "exists",
                  "type": "bool"
                }
              ],
              "internalType": "struct LogisticsContract.Driver",
              "name": "driver",
              "type": "tuple"
            },
            {
              "components": [
                {
                  "internalType": "uint256",
                  "name": "witholdedRate",
                  "type": "uint256"
                },
                {
                  "internalType": "address",
                  "name": "shipperAddress",
                  "type": "address"
                },
                {
                  "internalType": "bool",
                  "name": "exists",
                  "type": "bool"
                }
              ],
              "internalType": "struct LogisticsContract.Shipper",
              "name": "shipper",
              "type": "tuple"
            },
            {
              "internalType": "string[]",
              "name": "shipperRequiredDocs",
              "type": "string[]"
            },
            {
              "internalType": "string[]",
              "name": "carrierRequiredDocs",
              "type": "string[]"
            },
            {
              "internalType": "contract PaymentMethod",
              "name": "paymentMethod",
              "type": "address"
            },
            {
              "internalType": "bytes",
              "name": "paymentExtraData",
              "type": "bytes"
            },
            {
              "internalType": "uint256",
              "name": "pickup",
              "type": "uint256"
            },
            {
              "internalType": "uint256",
              "name": "delivery",
              "type": "uint256"
            },
            {
              "internalType": "uint256[]",
              "name": "stops",
              "type": "uint256[]"
            },
            {
              "internalType": "bool",
              "name": "paid",
              "type": "bool"
            },
            {
              "internalType": "enum LogisticsContract.State",
              "name": "state",
              "type": "uint8"
            },
            {
              "internalType": "uint256",
              "name": "currentStop",
              "type": "uint256"
            },
            {
              "internalType": "bool",
              "name": "exists",
              "type": "bool"
            }
          ],
          "internalType": "struct LogisticsContract.Transaction",
          "name": "",
          "type": "tuple"
        }
      ],
      "stateMutability": "view",
      "type": "function"
    },
    {
      "inputs": [
        {
          "components": [
            {
              "internalType": "string",
              "name": "shipmentId",
              "type": "string"
            },
            {
              "internalType": "address",
              "name": "carrier",
              "type": "address"
            },
            {
              "internalType": "uint256",
              "name": "value",
              "type": "uint256"
            },
            {
              "internalType": "address",
              "name": "paymentMethod",
              "type": "address"
            },
            {
              "internalType": "uint256",
              "name": "pickupDate",
              "type": "uint256"
            },
            {
              "internalType": "uint256",
              "name": "deliveryDate",
              "type": "uint256"
            },
            {
              "internalType": "uint256[]",
              "name": "stops",
              "type": "uint256[]"
            },
            {
              "internalType": "string[]",
              "name": "shipperRequiredDocs",
              "type": "string[]"
            },
            {
              "internalType": "string[]",
              "name": "carrierRequiredDocs",
              "type": "string[]"
            },
            {
              "internalType": "bytes",
              "name": "paymentExtraData",
              "type": "bytes"
            }
          ],
          "internalType": "struct LogisticsContract.InitOptions",
          "name": "options",
          "type": "tuple"
        }
      ],
      "name": "init",
      "outputs": [
        {
          "internalType": "bytes32",
          "name": "",
          "type": "bytes32"
        }
      ],
      "stateMutability": "payable",
      "type": "function"
    },
    {
      "inputs": [
        {
          "internalType": "bytes32",
          "name": "_transactionID",
          "type": "bytes32"
        }
      ],
      "name": "setShipmentReadyForPickup",
      "outputs": [],
      "stateMutability": "nonpayable",
      "type": "function"
    }
  ],
  "bytecode": "0x60806040523480156200001157600080fd5b5060405162002fc938038062002fc9833981016040819052620000349162000097565b600280546001600160a01b0319908116331790915564b1a2bc2ec5600055600380546001600160a01b0394851690831617905560048054929093169116179055620000ce565b80516001600160a01b03811681146200009257600080fd5b919050565b60008060408385031215620000aa578182fd5b620000b5836200007a565b9150620000c5602084016200007a565b90509250929050565b612eeb80620000de6000396000f3fe6080604052600436106100b15760003560e01c80636638dc12116100695780639838f3ca1161004e5780639838f3ca14610187578063b7413b5b146101a7578063f5cda3d4146101c7576100b1565b80636638dc121461015457806374950ffd14610174576100b1565b80633f8ebc731161009a5780633f8ebc73146101015780634c848ed61461012e5780635c4ab53d14610141576100b1565b80630659940d146100b65780633611d088146100df575b600080fd5b6100c96100c4366004611f84565b6101e7565b6040516100d69190612438565b60405180910390f35b3480156100eb57600080fd5b506100ff6100fa366004611ef8565b61056e565b005b34801561010d57600080fd5b5061012161011c366004611f3f565b6105e6565b6040516100d69190612a89565b6100ff61013c366004611ef8565b610ab9565b6100ff61014f366004611ef8565b610c2c565b610167610162366004611f10565b610d8e565b6040516100d6919061242d565b6100ff610182366004611ef8565b610f1b565b34801561019357600080fd5b506100ff6101a2366004611ef8565b611100565b3480156101b357600080fd5b506101216101c2366004611ef8565b6115ae565b3480156101d357600080fd5b506100ff6101e2366004611ef8565b611a56565b600080826000015133604051602001610201929190612317565b604051602081830303815290604052805190602001209050610221611b2f565b610229611b2f565b60008381526007602052604090206012015460ff16156102645760405162461bcd60e51b815260040161025b906129f5565b60405180910390fd5b60a08501516102766103e8603c612dbd565b61028190603c612dbd565b86608001516102909190612da5565b106102ad5760405162461bcd60e51b815260040161025b90612896565b6000838152600760209081526040909120848155865180516102d9936001909301929190910190611b4f565b50600083815260076020526040902060100180546002919061ff0019166101008302179055506020808601516001600160a01b0390811684830190815260016040808701828152600089815260078088528382208a516003820155955160048701805494511515600160a01b90810260ff60a01b19938b1673ffffffffffffffffffffffffffffffffffffffff19978816178416179091558a51888401558a8a01805160088a0180548e8a0180511515909502928d16908916179094161790925533909152938d0180518a5293859052908a9052865260128401805460ff19169093179092555160028301556060890151600b830180549190941691161790915561012087015180516103f693600c909301929190910190611b4f565b5060808501516000848152600760209081526040909120600d81019290925560c0870151805161042e93600f01929190910190611bd3565b5060a08501516000848152600760209081526040909120600e81019290925560e0870151805161046693600901929190910190611c0d565b506101008501516000848152600760209081526040909120825161049393600a9092019290910190611c0d565b5060008381526007602052604090819020600b81015491517fd9d8a7000000000000000000000000000000000000000000000000000000000081526001600160a01b039092169163d9d8a7009134916104ef9190600401612bf8565b6000604051808303818588803b15801561050857600080fd5b505af115801561051c573d6000803e3d6000fd5b5050505050827f1fccfb8c754d1b6c4e3775fd2e9c9118cb3b498bbb890fbd3dcf2866d1cae4b78660600151876040015160405161055b929190612414565b60405180910390a250909150505b919050565b6000818152600760205260409020600b8101546001600160a01b031633146105a85760405162461bcd60e51b815260040161025b90612839565b60108101805460ff1916600117905560405182907fdef8694c7464fd7e748576ecb513ee836684badb6af706a381e5f6b1b39fc7cb90600090a25050565b6105ee611c66565b600760008484604051602001610605929190612317565b604051602081830303815290604052805190602001208152602001908152602001600020604051806102200160405290816000820154815260200160018201805461064f90612e1e565b80601f016020809104026020016040519081016040528092919081815260200182805461067b90612e1e565b80156106c85780601f1061069d576101008083540402835291602001916106c8565b820191906000526020600020905b8154815290600101906020018083116106ab57829003601f168201915b5050509183525050600282015460208083019190915260408051606080820183526003860154825260048601546001600160a01b038082168487015260ff600160a01b928390048116151585870152858801949094528451808401865260058901548152600689015480831682890152839004851615158187015283880152845192830185526007880154835260088801549081168387015204909116151581830152608084015260098401805482518185028101850190935280835260a090940193919290919060009084015b828210156108425783829060005260206000200180546107b590612e1e565b80601f01602080910402602001604051908101604052809291908181526020018280546107e190612e1e565b801561082e5780601f106108035761010080835404028352916020019161082e565b820191906000526020600020905b81548152906001019060200180831161081157829003601f168201915b505050505081526020019060010190610796565b505050508152602001600a8201805480602002602001604051908101604052809291908181526020016000905b8282101561091b57838290600052602060002001805461088e90612e1e565b80601f01602080910402602001604051908101604052809291908181526020018280546108ba90612e1e565b80156109075780601f106108dc57610100808354040283529160200191610907565b820191906000526020600020905b8154815290600101906020018083116108ea57829003601f168201915b50505050508152602001906001019061086f565b50505090825250600b8201546001600160a01b03166020820152600c8201805460409092019161094a90612e1e565b80601f016020809104026020016040519081016040528092919081815260200182805461097690612e1e565b80156109c35780601f10610998576101008083540402835291602001916109c3565b820191906000526020600020905b8154815290600101906020018083116109a657829003601f168201915b50505050508152602001600d8201548152602001600e8201548152602001600f8201805480602002602001604051908101604052809291908181526020018280548015610a2f57602002820191906000526020600020905b815481526020019060010190808311610a1b575b5050509183525050601082015460ff80821615156020840152604090920191610100909104166008811115610a7457634e487b7160e01b600052602160045260246000fd5b6008811115610a9357634e487b7160e01b600052602160045260246000fd5b81526011820154602082015260129091015460ff16151560409091015290505b92915050565b600081815260076020526040902060120154819060ff161515600114610af15760405162461bcd60e51b815260040161025b90612987565b6005600083815260076020526040902060100154610100900460ff166008811115610b2c57634e487b7160e01b600052602160045260246000fd5b14610b495760405162461bcd60e51b815260040161025b90612722565b6000828152600760205260409020600601546001600160a01b03163314610b825760405162461bcd60e51b815260040161025b9061260b565b60008281526007602052604090206011810154600f9091015411610bb85760405162461bcd60e51b815260040161025b906129be565b817f69727302305ba9733d9b6a43eb9bc3036e72d73ac581af83f14521d02256f6716007600085815260200190815260200160002060110154604051610bfe9190612438565b60405180910390a26000828152600760205260408120601101805491610c2383612e59565b91905055505050565b600081815260076020526040902060120154819060ff161515600114610c645760405162461bcd60e51b815260040161025b90612987565b60008281526007602052604090206006015482906001600160a01b03163314610c9f5760405162461bcd60e51b815260040161025b906128f3565b6004600084815260076020526040902060100154610100900460ff166008811115610cda57634e487b7160e01b600052602160045260246000fd5b14610cf75760405162461bcd60e51b815260040161025b906127dc565b6000838152600760205260409020600601546001600160a01b03163314610d305760405162461bcd60e51b815260040161025b90612579565b60008381526007602052604090819020601001805461ff0019166105001790555183907f4d1d230858311adf13bad6bbfc51c44b3cf301deea1fa890fb8002e0b27efadf90610d8190600590612441565b60405180910390a2505050565b600082815260076020526040812060120154839060ff161515600114610dc65760405162461bcd60e51b815260040161025b90612987565b6003600085815260076020526040902060100154610100900460ff166008811115610e0157634e487b7160e01b600052602160045260246000fd5b14610e1e5760405162461bcd60e51b815260040161025b906125d6565b6000848152600760205260409020600401546001600160a01b03163314610e575760405162461bcd60e51b815260040161025b90612462565b610e5f611b2f565b6001600160a01b0380851660208084019182523484526001604080860191825260008a81526007909352918290208551600582015592516006909301805491511515600160a01b0260ff60a01b199490951673ffffffffffffffffffffffffffffffffffffffff1990921691909117929092169290921790555185907f53f087a73733405c58661b57ada6643ed063f9d280b4d1b513359c6e1ba88c6290610f089087906123cb565b60405180910390a2506000949350505050565b600081815260076020526040902060120154819060ff161515600114610f535760405162461bcd60e51b815260040161025b90612987565b6005600083815260076020526040902060100154610100900460ff166008811115610f8e57634e487b7160e01b600052602160045260246000fd5b14610fab5760405162461bcd60e51b815260040161025b90612a2c565b6000828152600760205260409020600601546001600160a01b03163314610fe45760405162461bcd60e51b815260040161025b906124bf565b6000828152600760205260409020600f810154601190910154101561101b5760405162461bcd60e51b815260040161025b9061277f565b60008281526007602052604090819020600b81015491517f4f3906c50000000000000000000000000000000000000000000000000000000081526001600160a01b0390921691634f3906c59161107391600401612bf8565b600060405180830381600087803b15801561108d57600080fd5b505af11580156110a1573d6000803e3d6000fd5b50505060008381526007602052604080822060108101805461ff001916610600179055600b015490516001600160a01b03909116925084917f76e82bdae99d72c078da4a593e564973be7b3aa01da5367872cf87174fada86891a35050565b600081815260076020526040902060120154819060ff1615156001146111385760405162461bcd60e51b815260040161025b90612987565b600082815260076020526040902060048101546008909101546001600160a01b0391821691166003600085815260076020526040902060100154610100900460ff16600881111561119957634e487b7160e01b600052602160045260246000fd5b146111b65760405162461bcd60e51b815260040161025b906126c5565b600084815260076020526040902060060154600160a01b900460ff166111ee5760405162461bcd60e51b815260040161025b90612950565b60005b6000858152600760205260409020600a01548110156113a657600085815260076020526040812060090180548390811061123b57634e487b7160e01b600052603260045260246000fd5b90600052602060002001805461125090612e1e565b80601f016020809104026020016040519081016040528092919081815260200182805461127c90612e1e565b80156112c95780601f1061129e576101008083540402835291602001916112c9565b820191906000526020600020905b8154815290600101906020018083116112ac57829003601f168201915b505060035460405163273654b760e11b81529495506001600160a01b031693634e6ca96e93506113039250879150889086906004016123df565b60206040518083038186803b15801561131b57600080fd5b505afa15801561132f573d6000803e3d6000fd5b505050506040513d601f19601f820116820180604052508101906113539190611ed1565b81604051602001611364919061234e565b604051602081830303815290604052906113915760405162461bcd60e51b815260040161025b919061244f565b5050808061139e90612e59565b9150506111f1565b5060005b60008581526007602052604090206009015481101561155f5760008581526007602052604081206009018054839081106113f457634e487b7160e01b600052603260045260246000fd5b90600052602060002001805461140990612e1e565b80601f016020809104026020016040519081016040528092919081815260200182805461143590612e1e565b80156114825780601f1061145757610100808354040283529160200191611482565b820191906000526020600020905b81548152906001019060200180831161146557829003601f168201915b505060035460405163273654b760e11b81529495506001600160a01b031693634e6ca96e93506114bc9250889150879086906004016123df565b60206040518083038186803b1580156114d457600080fd5b505afa1580156114e8573d6000803e3d6000fd5b505050506040513d601f19601f8201168201806040525081019061150c9190611ed1565b8160405160200161151d9190612393565b6040516020818303038152906040529061154a5760405162461bcd60e51b815260040161025b919061244f565b5050808061155790612e59565b9150506113aa565b5060405184907f3e2d9b148df6fac1ad989c8c2b3a15a04a4297f32dbbe2d1dd5fa760d02cb6b290600090a25050506000908152600760205260409020601001805461ff001916610400179055565b6115b6611c66565b6007600083815260200190815260200160002060405180610220016040529081600082015481526020016001820180546115ef90612e1e565b80601f016020809104026020016040519081016040528092919081815260200182805461161b90612e1e565b80156116685780601f1061163d57610100808354040283529160200191611668565b820191906000526020600020905b81548152906001019060200180831161164b57829003601f168201915b5050509183525050600282015460208083019190915260408051606080820183526003860154825260048601546001600160a01b038082168487015260ff600160a01b928390048116151585870152858801949094528451808401865260058901548152600689015480831682890152839004851615158187015283880152845192830185526007880154835260088801549081168387015204909116151581830152608084015260098401805482518185028101850190935280835260a090940193919290919060009084015b828210156117e257838290600052602060002001805461175590612e1e565b80601f016020809104026020016040519081016040528092919081815260200182805461178190612e1e565b80156117ce5780601f106117a3576101008083540402835291602001916117ce565b820191906000526020600020905b8154815290600101906020018083116117b157829003601f168201915b505050505081526020019060010190611736565b505050508152602001600a8201805480602002602001604051908101604052809291908181526020016000905b828210156118bb57838290600052602060002001805461182e90612e1e565b80601f016020809104026020016040519081016040528092919081815260200182805461185a90612e1e565b80156118a75780601f1061187c576101008083540402835291602001916118a7565b820191906000526020600020905b81548152906001019060200180831161188a57829003601f168201915b50505050508152602001906001019061180f565b50505090825250600b8201546001600160a01b03166020820152600c820180546040909201916118ea90612e1e565b80601f016020809104026020016040519081016040528092919081815260200182805461191690612e1e565b80156119635780601f1061193857610100808354040283529160200191611963565b820191906000526020600020905b81548152906001019060200180831161194657829003601f168201915b50505050508152602001600d8201548152602001600e8201548152602001600f82018054806020026020016040519081016040528092919081815260200182805480156119cf57602002820191906000526020600020905b8154815260200190600101908083116119bb575b5050509183525050601082015460ff80821615156020840152604090920191610100909104166008811115611a1457634e487b7160e01b600052602160045260246000fd5b6008811115611a3357634e487b7160e01b600052602160045260246000fd5b81526011820154602082015260129091015460ff16151560409091015292915050565b6000818152600760205260409020600401546001600160a01b03163314611a8f5760405162461bcd60e51b815260040161025b9061251c565b6002600082815260076020526040902060100154610100900460ff166008811115611aca57634e487b7160e01b600052602160045260246000fd5b14611ae75760405162461bcd60e51b815260040161025b90612668565b600081815260076020526040808220601001805461ff0019166103001790555182917f87542c45620aff86fdf11f08e2774c95efaee6f086bb7acd7f846eb933b0469e91a250565b604080516060810182526000808252602082018190529181019190915290565b828054611b5b90612e1e565b90600052602060002090601f016020900481019282611b7d5760008555611bc3565b82601f10611b9657805160ff1916838001178555611bc3565b82800160010185558215611bc3579182015b82811115611bc3578251825591602001919060010190611ba8565b50611bcf929150611d29565b5090565b828054828255906000526020600020908101928215611bc35791602002820182811115611bc3578251825591602001919060010190611ba8565b828054828255906000526020600020908101928215611c5a579160200282015b82811115611c5a5782518051611c4a918491602090910190611b4f565b5091602001919060010190611c2d565b50611bcf929150611d3e565b604051806102200160405280600080191681526020016060815260200160008152602001611c92611b2f565b8152602001611c9f611b2f565b8152602001611cac611b2f565b8152602001606081526020016060815260200160006001600160a01b031681526020016060815260200160008152602001600081526020016060815260200160001515815260200160006008811115611d1557634e487b7160e01b600052602160045260246000fd5b815260006020820181905260409091015290565b5b80821115611bcf5760008155600101611d2a565b80821115611bcf576000611d528282611d5b565b50600101611d3e565b508054611d6790612e1e565b6000825580601f10611d795750611d97565b601f016020900490600052602060002090810190611d979190611d29565b50565b803561056981612ea0565b600082601f830112611db5578081fd5b81356020611dca611dc583612d81565b612d50565b82815281810190858301855b85811015611dff57611ded898684358b0101611e66565b84529284019290840190600101611dd6565b5090979650505050505050565b600082601f830112611e1c578081fd5b81356020611e2c611dc583612d81565b8281528181019085830183850287018401881015611e48578586fd5b855b85811015611dff57813584529284019290840190600101611e4a565b600082601f830112611e76578081fd5b813567ffffffffffffffff811115611e9057611e90612e8a565b611ea3601f8201601f1916602001612d50565b818152846020838601011115611eb7578283fd5b816020850160208301379081016020019190915292915050565b600060208284031215611ee2578081fd5b81518015158114611ef1578182fd5b9392505050565b600060208284031215611f09578081fd5b5035919050565b60008060408385031215611f22578081fd5b823591506020830135611f3481612ea0565b809150509250929050565b60008060408385031215611f51578182fd5b823567ffffffffffffffff811115611f67578283fd5b611f7385828601611e66565b9250506020830135611f3481612ea0565b600060208284031215611f95578081fd5b813567ffffffffffffffff80821115611fac578283fd5b8184019150610140808387031215611fc2578384fd5b611fcb81612d50565b9050823582811115611fdb578485fd5b611fe787828601611e66565b825250611ff660208401611d9a565b60208201526040830135604082015261201160608401611d9a565b60608201526080830135608082015260a083013560a082015260c08301358281111561203b578485fd5b61204787828601611e0c565b60c08301525060e08301358281111561205e578485fd5b61206a87828601611da5565b60e0830152506101008084013583811115612083578586fd5b61208f88828701611da5565b82840152505061012080840135838111156120a8578586fd5b6120b488828701611e66565b918301919091525095945050505050565b6000815180845260208085018081965082840281019150828601855b8581101561210b5782840389526120f98483516121d2565b988501989350908401906001016120e1565b5091979650505050505050565b6000815480845260208085018081965082840281019150858552828520855b8581101561210b57828403895261214e84836121fe565b98850198935060019182019101612137565b6000815180845260208085019450808401835b8381101561218f57815187529582019590820190600101612173565b509495945050505050565b6000815480845260208085019450838352808320835b8381101561218f578154875295820195600191820191016121b0565b15159052565b600081518084526121ea816020860160208601612dee565b601f01601f19169290920160200192915050565b80546000906002810460018083168061221857607f831692505b602080841082141561223857634e487b7160e01b86526022600452602486fd5b83885281801561224f576001811461226357612291565b60ff19861689830152604089019650612291565b876000528160002060005b868110156122895781548b820185015290850190830161226e565b8a0183019750505b50505050505092915050565b6001600160a01b03169052565b600981106122c857634e487b7160e01b600052602160045260246000fd5b9052565b805182526020808201516001600160a01b0316908301526040908101511515910152565b80548252600101546001600160a01b038116602083015260a01c60ff161515604090910152565b60008351612329818460208801612dee565b60609390931b6bffffffffffffffffffffffff19169190920190815260140192915050565b60007f43617272696572206e6565647320746f207369676e000000000000000000000082528251612386816015850160208701612dee565b9190910160150192915050565b60007f53686970706572206e6565647320746f207369676e000000000000000000000082528251612386816015850160208701612dee565b6001600160a01b0391909116815260200190565b60006001600160a01b0380861683528085166020840152506060604083015261240b60608301846121d2565b95945050505050565b6001600160a01b03929092168252602082015260400190565b901515815260200190565b90815260200190565b60208101610ab382846122aa565b600060208252611ef160208301846121d2565b60208082526029908201527f596f7520617265206e6f74207468652063617272696572206f6620746869732060408201527f736869706d656e742e0000000000000000000000000000000000000000000000606082015260800190565b6020808252603b908201527f596f7520617265206e6f7420617574686f72697a656420746f20636f6e66697260408201527f6d207468697320736869706d656e7427732064656c69766572792e0000000000606082015260800190565b60208082526028908201527f596f7520617265206e6f74207468652063617272696572206f6620746869732060408201527f736869706d656e74000000000000000000000000000000000000000000000000606082015260800190565b60208082526039908201527f596f7520617265206e6f7420617574686f72697a656420746f20636f6e66697260408201527f6d207468697320736869706d656e742773207069636b75702e00000000000000606082015260800190565b6020808252818101527f43616e277420616464206472697665722061742074686973206d6f6d656e742e604082015260600190565b60208082526037908201527f596f7520617265206e6f7420617574686f72697a656420746f20636f6e66697260408201527f6d207468697320736869706d656e7427732073746f702e000000000000000000606082015260800190565b60208082526035908201527f5468697320736869706d656e7420686173206265656e2061636365707465642060408201527f6f7220686173206265656e2063616e63656c6c65640000000000000000000000606082015260800190565b60208082526036908201527f43616e27742073657420736869706d656e7420746f20726561647920666f722060408201527f7069636b75702061742074686973206d6f6d656e742e00000000000000000000606082015260800190565b60208082526023908201527f43616e277420636f6e6669726d2073746f70732061742074686973206d6f6d6560408201527f6e742e0000000000000000000000000000000000000000000000000000000000606082015260800190565b6020808252603f908201527f596f752063616e206f6e6c7920636f6e6669726d2064656c697665727920776860408201527f656e20616c6c2073746f707320686173206265656e207265706f727465642e00606082015260800190565b60208082526024908201527f43616e277420636f6e6669726d207069636b75702061742074686973206d6f6d60408201527f656e742e00000000000000000000000000000000000000000000000000000000606082015260800190565b60208082526023908201527f4d4554484f445f524553545249435445445f544f5f5041594d454e545f4d455460408201527f484f440000000000000000000000000000000000000000000000000000000000606082015260800190565b60208082526032908201527f44656c69766572792074696d65206d757374206265206174206c65617374203160408201527f20686f7572206166746572207069636b75700000000000000000000000000000606082015260800190565b60208082526027908201527f596f7520617265206e6f742074686520647269766572206f662074686973207360408201527f6869706d656e7400000000000000000000000000000000000000000000000000606082015260800190565b60208082526017908201527f44726976657220686173206e6f74206265656e20736574000000000000000000604082015260600190565b6020808252601a908201527f5472616e73616374696f6e20646f6573206e6f74206578697374000000000000604082015260600190565b6020808252601d908201527f596f752068617665206e6f2073746f707320746f20636f6e6669726d2e000000604082015260600190565b6020808252601a908201527f5472616e73616374696f6e20616c726561647920657869737473000000000000604082015260600190565b60208082526026908201527f43616e277420636f6e6669726d2064656c69766572792061742074686973206d60408201527f6f6d656e742e0000000000000000000000000000000000000000000000000000606082015260800190565b6000602082528251602083015260208301516102e0806040850152612ab26103008501836121d2565b9150604085015160608501526060850151612ad060808601826122cc565b506080850151612ae360e08601826122cc565b5060a0850151610140612af8818701836122cc565b60c08701519150601f196101a0818887030181890152612b1886856120c5565b955060e089015193506101c08289880301818a0152612b3787866120c5565b96506101008a015194506101e0612b50818b018761229d565b6101208b01519550610200848b8a0301818c0152612b6e89886121d2565b9850858c01516102208c01526101608c01516102408c01526101808c01519650848b8a03016102608c0152612ba38988612160565b9850838c01519650612bb96102808c01886121cc565b828c01519650612bcd6102a08c01886122aa565b908b01516102c08b01528a01519450612bee935050508387019050826121cc565b5090949350505050565b600060208252825460208301526102e0806040840152612c1f6103008401600186016121fe565b60028501546060850152612c3960808501600387016122f0565b612c4960e08501600587016122f0565b612c5a6101408501600787016122f0565b601f1980858303016101a0860152612c758260098801612118565b915080858303016101c0860152612c8f82600a8801612118565b9150612c9e600b870154612ddc565b612cac6101e087018261229d565b508085830301610200860152612cc582600c88016121fe565b9150600d860154610220860152600e860154610240860152808583030161026086015250612cf681600f870161219a565b90506010850154612d0e610280860160ff83166121cc565b612d226102a0860160ff8360081c166122aa565b5060118501546102c0850152612d3b6012860154612de8565b612d47838601826121cc565b50949350505050565b604051601f8201601f1916810167ffffffffffffffff81118282101715612d7957612d79612e8a565b604052919050565b600067ffffffffffffffff821115612d9b57612d9b612e8a565b5060209081020190565b60008219821115612db857612db8612e74565b500190565b6000816000190483118215151615612dd757612dd7612e74565b500290565b6001600160a01b031690565b60ff1690565b60005b83811015612e09578181015183820152602001612df1565b83811115612e18576000848401525b50505050565b600281046001821680612e3257607f821691505b60208210811415612e5357634e487b7160e01b600052602260045260246000fd5b50919050565b6000600019821415612e6d57612e6d612e74565b5060010190565b634e487b7160e01b600052601160045260246000fd5b634e487b7160e01b600052604160045260246000fd5b6001600160a01b0381168114611d9757600080fdfea264697066735822122009007b23eaf795638a8a9fba9b0c6e7c0fdb810f2984633f40c9a90d2c2ac69f64736f6c63430008010033",
  "linkReferences": {},
  "deployedLinkReferences": {}
}